:100000000000032089060000054B0000F5040000F5
:10001000FD040000050500000D05000000000000C3
:10002000000000000000000000000000C505000006
:10003000D1060000000000005D0600006D06000013
:10004000E9060000ED060000F1060000F5060000DC
:10005000F9060000FD06000001070000050700008A
:10006000090700000D070000110700001507000038
:10007000190700001D0700002107000025070000E8
:1000800029070000D1060000D1060000D1060000BB
:10009000D1060000D1060000D1060000D106000004
:1000A0002D07000031070000350700003907000068
:1000B0003D07000041070000D10600004507000091
:1000C000490700004D0700005107000055070000D8
:1000D000590700005D07000061070000D10600001D
:1000E000D1060000D1060000D1060000D1060000B4
:1000F000D1060000D1060000D1060000D1060000A4
:10010000D1060000D1060000D1060000D106000093
:10011000D1060000D1060000D1060000D106000083
:10012000D1060000D1060000D1060000D106000073
:10013000D1060000D1060000D1060000D106000063
:10014000D106000065070000690700006D07000088
:10015000D1060000D1060000D1060000D106000043
:10016000D1060000D10600007107000075070000ED
:10017000790700007D070000810700008507000067
:10018000890700008D0700009157000049570000C3
:100190006157000079570000A1070000D106000058
:1001A000D1060000D1060000D1060000A50700001E
:1001B000D1060000D1060000A9070000AD0700002D
:1001C000B1070000B5070000B9070000BD07000037
:1001D000D1060000D1060000D1060000D1060000C3
:1001E000D1060000D1060000D1060000D1060000B3
:1001F000D1060000D1060000D1060000D1060000A3
:10020000D1060000D1060000D1060000D106000092
:1003F000D1060000D1060000D1060000FFFFFFFF7C
:10040000FFFFFFFFFFFFFFFFFFFFFFFFFEFFFFFFFD
:1004400010B5054C237833B9044B13B10448AFF30E
:1004500000800123237010BD000000200000000078
:1004600014DA000008B5034B1BB103490348AFF38E
:10047000008008BD000000000400002014DA000025
:10048000154B002B08BF134B9D46A3F5803A002166
:100490008B460F461348144A121A07F0A9F90F4B5E
:1004A000002B00D098470E4B002B00D0984700201F
:1004B000002104000D000D48002802D00C4802F075
:1004C00071FB06F0BDFD2000290002F0E9FD02F0FD
:1004D000FDFC00BF00000800000003200000000039
:1004E000FD2F000000000020681A0020A52B00004E
:1004F000000000004FF0100300F00CB84FF0200394
:1005000000F008B84FF0300300F004B84FF040039B
:1005100000F000B8EFF308804FF0040172460A4281
:1005200001D0EFF309809C46254B196802680A60E8
:10053000043142680A60043182680A600431C2688A
:100540000A600431F0C147460F6004314F460F6026
:10055000043157460F6004315F460F600431026971
:100560000A60083142690A60043182690A60043114
:10057000C2690A600431034620334FF400763242E8
:1005800000D0043375464FF01006354200D1483391
:100590000C46103C2360EFF309820A600431EFF34C
:1005A00008820A60043172460A600431EFF3148253
:1005B0000A606046024B196801F0AAFEFEE70000DF
:1005C00078C200001EF0040F0CBFEFF30880EFF3B9
:1005D0000980816911F8021C91BB01B590E80F10E8
:1005E000E047BDE800508CE80300244B93E8060088
:1005F000914208BF704741B91EF0100F10D1204939
:10060000086820F0010008600AE02CE9F00F1EF0F5
:10061000100F08BF2CED108AC1F838C081F822E015
:100620001A6092F82210906B61F0FF0E1EF0100F0E
:1006300008BFB0EC108AB0E8F00F80F3098870476B
:10064000104A13689942FAD801B552F821C00FC870
:10065000E047BDE80050CCF80000704701B503F05A
:10066000C3FDBDE80140EFF3098CBEE701B503F01F
:1006700081FDBDE80140EFF3098CB6E72C06FF1FB2
:1006800034EF00E040CB000072B60A480A4901602E
:100690000A6882F30888094880470949094A0A4BD1
:1006A0009A42BEBF51F8040B42F8040BF8E762B659
:1006B0000648804708ED00E000000000194B0000EC
:1006C00044DA00000005FF1F9010FF1F81040000A6
:1006D000FFF7FEBF3A4800473A4800473A4800470C
:1006E0003A4800473A4800473A4800473A480047E6
:1006F0003A4800473A4800473A4800473A480047D6
:100700003A4800473A4800473A4800473A480047C5
:100710003A4800473A4800473A4800473A480047B5
:100720003A4800473A4800473A4800473A480047A5
:100730003A4800473A4800473A4800473A48004795
:100740003A4800473A4800473A4800473A48004785
:100750003A4800473A4800473A4800473A48004775
:100760003A4800473A4800473A4800473A48004765
:100770003A4800473A480047394800473848004758
:100780003748004736480047354800473548004756
:100790003548004735480047354800473548004749
:1007A000354800473548004735480047344800473A
:1007B0003348004732480047314800473048004737
:1007C000054B0000F5040000C50500005D060000B3
:1007D0006D060000C95300000154000039540000A8
:1007E00071540000A9540000E154000019550000A4
:1007F0005155000089550000C1550000F955000011
:100800003156000069560000A1560000D95600007C
:1008100011570000D1060000515800006558000033
:100820003552000069520000955A0000D15A00006C
:10083000C15E0000D1060000DD5E0000D1060000B0
:10084000F95E0000D1060000155F0000D10600002F
:100850009D520000315F0000D10600007958000071
:10086000A55700000D5B0000D1060000D106000076
:10087000D1060000D1060000655900008D58000027
:10088000E157000000000000000000000000000030
:1008900001F0FF01102A2BDB10F0070F08D010F831
:1008A000013B013A8B422DD010F0070F42B3F6D135
:1008B000F0B441EA012141EA014122F007047FF04E
:1008C00000070023F0E80256083C85EA010586EAA5
:1008D000010685FA47F5A3FA87F586FA47F6A5FAE1
:1008E00087F68EB9EED1F0BC01F0FF0102F00702ED
:1008F00032B110F8013B013A83EA010313B1F8D198
:100900000020704701387047002D06BF3546033878
:10091000073815F0010F07D1013015F4807F02BFB1
:10092000013015F4C03F0130F0BC0138704700BF02
:10093000844641EA000313F003036DD1403A41D3EA
:1009400051F8043B40F8043B51F8043B40F8043BA9
:1009500051F8043B40F8043B51F8043B40F8043B99
:1009600051F8043B40F8043B51F8043B40F8043B89
:1009700051F8043B40F8043B51F8043B40F8043B79
:1009800051F8043B40F8043B51F8043B40F8043B69
:1009900051F8043B40F8043B51F8043B40F8043B59
:1009A00051F8043B40F8043B51F8043B40F8043B49
:1009B00051F8043B40F8043B51F8043B40F8043B39
:1009C000403ABDD2303211D351F8043B40F8043BD9
:1009D00051F8043B40F8043B51F8043B40F8043B19
:1009E00051F8043B40F8043B103AEDD20C3205D3E9
:1009F00051F8043B40F8043B043AF9D2043208D0E1
:100A0000D2071CBF11F8013B00F8013B01D30B8852
:100A100003806046704700BF082A13D38B078DD030
:100A200010F003038AD0C3F10403D21ADB071CBF02
:100A300011F8013B00F8013B80D331F8023B20F86C
:100A4000023B7BE7043AD9D3013A11F8013B00F8A5
:100A5000013BF9D20B7803704B7843708B7883702D
:100A60006046704700000000000000000000000029
:100A70000000000000000000000000000000000076
:100A800090F800F06DE9024520F007016FF0000CCE
:100A900010F0070491F820F040F049804FF0000476
:100AA0006FF00700D1E9002391F840F000F1080051
:100AB00082FA4CF2A4FA8CF283FA4CF3A2FA8CF389
:100AC0004BBBD1E9022382FA4CF200F10800A4FAF0
:100AD0008CF283FA4CF3A2FA8CF3E3B9D1E9042344
:100AE00082FA4CF200F10800A4FA8CF283FA4CF37B
:100AF000A2FA8CF37BB9D1E9062301F1200182FA35
:100B00004CF200F10800A4FA8CF283FA4CF3A2FA3A
:100B10008CF3002BC6D0002A04BF04301A4612BA48
:100B2000B2FA82F2FDE8024500EBD2007047D1E94B
:100B3000002304F00305C4F100004FEAC50514F0DA
:100B4000040F91F840F00CFA05F562EA05021CBFAB
:100B500063EA050362464FF00004A9E781F0004113
:100B600002E000BF83F0004330B54FEA41044FEA92
:100B7000430594EA050F08BF90EA020F1FBF54EA2D
:100B8000000C55EA020C7FEA645C7FEA655C00F0C9
:100B9000E2804FEA5454D4EB5555B8BF6D420CDD9A
:100BA0002C4480EA020281EA030382EA000083EA1D
:100BB000010180EA020281EA0303362D88BF30BDBD
:100BC00011F0004F4FEA01314FF4801C4CEA113113
:100BD00002D0404261EB410113F0004F4FEA033372
:100BE0004CEA133302D0524263EB430394EA050FFD
:100BF00000F0A780A4F10104D5F1200E0DDB02FA6C
:100C00000EFC22FA05F2801841F1000103FA0EF2FF
:100C1000801843FA05F359410EE0A5F120050EF1C5
:100C2000200E012A03FA0EFC28BF4CF0020C43FAF6
:100C300005F3C01851EBE37101F0004507D54FF003
:100C4000000EDCF1000C7EEB00006EEB0101B1F553
:100C5000801F1BD3B1F5001F0CD349085FEA300099
:100C60004FEA3C0C04F101044FEA445212F5800FA4
:100C700080F09A80BCF1004F08BF5FEA500C50F141
:100C8000000041EB045141EA050130BD5FEA4C0C24
:100C9000404141EB010111F4801FA4F10104E9D1AD
:100CA00091F0000F04BF01460020B1FA81F308BFA4
:100CB0002033A3F10B03B3F120020CDA0C3208DD70
:100CC00002F1140CC2F10C0201FA0CF021FA02F14B
:100CD0000CE002F11402D8BFC2F1200C01FA02F1BB
:100CE00020FA0CFCDCBF41EA0C019040E41AA2BFE0
:100CF00001EB0451294330BD6FEA04041F3C1CDAA8
:100D00000C340EDC04F11404C4F1200220FA04F0C7
:100D100001FA02F340EA030021FA04F345EA030171
:100D200030BDC4F10C04C4F1200220FA02F001FA33
:100D300004F340EA0300294630BD21FA04F02946B5
:100D400030BD94F0000F83F4801306BF81F480114E
:100D50000134013D4EE77FEA645C18BF7FEA655CC1
:100D600029D094EA050F08BF90EA020F05D054EA93
:100D7000000C04BF1946104630BD91EA030F1EBF98
:100D80000021002030BD5FEA545C05D1400049419C
:100D900028BF41F0004130BD14F580043CBF01F58F
:100DA000801130BD01F0004545F0FE4141F4700175
:100DB0004FF0000030BD7FEA645C1ABF1946104650
:100DC0007FEA655C1CBF0B46024650EA013406BF51
:100DD00052EA033591EA030F41F4002130BD00BF10
:100DE00090F0000F04BF0021704730B54FF48064CD
:100DF00004F132044FF000054FF0000150E700BF4E
:100E000090F0000F04BF0021704730B54FF48064AC
:100E100004F1320410F0004548BF40424FF0000199
:100E20003EE700BF42004FEAE2014FEA31014FEADC
:100E300002701FBF12F07F4393F07F4F81F060512B
:100E4000704732F07F4208BF704793F07F4F04BF76
:100E500041F40021704730B54FF4607401F0004553
:100E600021F000411CE700BF50EA010208BF7047B3
:100E700030B54FF000050AE050EA010208BF7047A4
:100E800030B511F0004502D5404261EB41014FF40D
:100E9000806404F132045FEA915C3FF4D8AE4FF015
:100EA00003025FEADC0C18BF03325FEADC0C18BFF8
:100EB000033202EBDC02C2F1200300FA03FC20FA49
:100EC00002F001FA03FE40EA0E0021FA02F1144496
:100ED000BDE600BF70B54FF0FF0C4CF4E06C1CEAAF
:100EE00011541DBF1CEA135594EA0C0F95EA0C0F20
:100EF00000F0DEF82C4481EA030621EA4C5123EA93
:100F00004C5350EA013518BF52EA033541F48011C1
:100F100043F4801338D0A0FB02CE4FF00005E1FB74
:100F200002E506F00042E0FB03E54FF00006E1FBBE
:100F300003569CF0000F18BF4EF0010EA4F1FF0401
:100F4000B6F5007F64F5407404D25FEA4E0E6D4141
:100F500046EB060642EAC62141EA55514FEAC52052
:100F600040EA5E504FEACE2EB4F1FD0C88BFBCF5CE
:100F7000E06F1ED8BEF1004F08BF5FEA500E50F17F
:100F8000000041EB045170BD06F0004646EA010145
:100F900040EA020081EA0301B4EB5C04C2BFD4EB77
:100FA0000C0541EA045170BD41F480114FF0000E70
:100FB000013C00F3AB8014F1360FDEBF002001F0DE
:100FC000004170BDC4F10004203C35DA0C341BDC58
:100FD00004F11404C4F1200500FA05F320FA04F02A
:100FE00001FA05F240EA020001F0004221F000415E
:100FF00010EBD37021FA04F642EB06015EEA430ED1
:1010000008BF20EAD37070BDC4F10C04C4F1200500
:1010100000FA04F320FA05F001FA04F240EA0200B3
:1010200001F0004110EBD37041F100015EEA430E84
:1010300008BF20EAD37070BDC4F1200500FA05F2A4
:101040004EEA020E20FA04F301FA05F243EA020323
:1010500021FA04F001F0004121FA04F220EA020032
:1010600000EBD3705EEA430E08BF20EAD37070BD78
:1010700094F0000F0FD101F00046400041EB010158
:1010800011F4801F08BF013CF7D041EA060195F03A
:10109000000F18BF704703F00046520043EB0303F4
:1010A00013F4801F08BF013DF7D043EA06037047E1
:1010B00094EA0C0F0CEA135518BF95EA0C0F0CD0EC
:1010C00050EA410618BF52EA4306D1D181EA030132
:1010D00001F000414FF0000070BD50EA410606BF2C
:1010E0001046194652EA430619D094EA0C0F02D171
:1010F00050EA013613D195EA0C0F05D152EA0336B6
:101100001CBF104619460AD181EA030101F00041D3
:1011100041F0FE4141F470014FF0000070BD41F01C
:10112000FE4141F4780170BD70B54FF0FF0C4CF4F6
:10113000E06C1CEA11541DBF1CEA135594EA0C0F15
:1011400095EA0C0F00F0A7F8A4EB050481EA030E62
:1011500052EA03354FEA013100F088804FEA033349
:101160004FF0805545EA131343EA12634FEA022217
:1011700045EA111545EA10654FEA00260EF00041D8
:101180009D4208BF964244F1FD0404F5407402D22A
:101190005B084FEA3202B61A65EB03055B084FEABB
:1011A00032024FF480104FF4002CB6EB020E75EBB8
:1011B000030E22BFB61A754640EA0C005B084FEAE0
:1011C0003202B6EB020E75EB030E22BFB61A75465D
:1011D00040EA5C005B084FEA3202B6EB020E75EBA8
:1011E000030E22BFB61A754640EA9C005B084FEA20
:1011F0003202B6EB020E75EB030E22BFB61A75462D
:1012000040EADC0055EA060E18D04FEA051545EA1B
:1012100016754FEA06164FEAC30343EA52734FEAC4
:10122000C2025FEA1C1CC0D111F4801F0BD141EA3D
:1012300000014FF000004FF0004CB6E711F4801FA2
:1012400004BF01430020B4F1FD0C88BFBCF5E06F82
:101250003FF6AFAEB5EB030C04BFB6EB020C5FEA92
:10126000500C50F1000041EB045170BD0EF0004EE7
:101270004EEA113114EB5C04C2BFD4EB0C0541EA19
:10128000045170BD41F480114FF0000E013C90E616
:1012900045EA060E8DE60CEA135594EA0C0F08BFDA
:1012A00095EA0C0F3FF43BAF94EA0C0F0AD150EAD9
:1012B00001347FF434AF95EA0C0F7FF425AF10466C
:1012C00019462CE795EA0C0F06D152EA03353FF494
:1012D000FDAE1046194622E750EA410618BF52EA11
:1012E00043067FF4C5AE50EA41047FF40DAF52EAE5
:1012F00043057FF4EBAE12E74FF0FF3C06E000BF82
:101300004FF0010C02E000BF4FF0010C4DF804CD8E
:101310004FEA410C7FEA6C5C4FEA430C18BF7FEA4E
:101320006C5C1BD001B050EA410C0CBF52EA430C7C
:1013300091EA030F02BF90EA020F0020704710F1FC
:10134000000F91EA030F58BF994208BF90422CBF8B
:10135000D8176FEAE37040F0010070474FEA410C84
:101360007FEA6C5C02D150EA013C07D14FEA430CA2
:101370007FEA6C5CD6D152EA033CD3D05DF8040B13
:10138000704700BF8446104662468C461946634645
:1013900000E000BF01B5FFF7B7FF002848BF10F11C
:1013A000000F01BD4DF808EDFFF7F4FF0CBF012061
:1013B00000205DF808FB00BF4DF808EDFFF7EAFFDD
:1013C00034BF012000205DF808FB00BF4DF808ED98
:1013D000FFF7E0FF94BF012000205DF808FB00BF8D
:1013E0004DF808EDFFF7CEFF94BF012000205DF817
:1013F00008FB00BF4DF808EDFFF7C4FF34BF012024
:1014000000205DF808FB00BF4FEA410C7FEA6C5CEE
:1014100002D150EA013C0AD14FEA430C7FEA6C5CEE
:1014200002D152EA033C02D14FF0000070474FF066
:10143000010070474FEA410212F5001215D211D592
:101440006FF47873B3EB625212D94FEAC12343F0C1
:10145000004343EA505311F0004F23FA02F018BF43
:10146000404270474FF00000704750EA013005D10C
:1014700011F0004008BF6FF0004070474FF00000CF
:10148000704700BF53B94AB9002908BF00281CBFE4
:101490004FF0FF314FF0FF3000F072B9ADF1080CA2
:1014A0006DE904CE00F006F8DDF804E0DDE9022382
:1014B00004B070472DE9F047089E04468846002B8B
:1014C0004BD18A42154667D9B2FA82F24AB1C2F1CB
:1014D000200701FA02F320FA07F7954047EA0308CC
:1014E00094404FEA154E230CB8FBFEF71FFA85FC1B
:1014F0000EFB178843EA084307FB0CF1994209D910
:10150000EB1807F1FF3080F01B81994240F21881FF
:10151000023F2B445B1AA4B2B3FBFEF00EFB103368
:1015200044EA034400FB0CFCA44509D92C1900F142
:10153000FF3380F00781A44540F2048102382C4437
:1015400040EA0740A4EB0C0400271EB1D44000235E
:10155000C6E900433946BDE8F0878B4209D9002E21
:1015600000F0EB800027C6E9000138463946BDE8A7
:10157000F087B3FA83F7002F47D18B4202D3824220
:1015800000F2FA80841A61EB030301209846002ED2
:10159000E0D0C6E90048DDE702B9FFDEB2FA82F228
:1015A000002A40F08F80491B4FEA154E1FFA85F83C
:1015B0000127B1FBFEFC230C0EFB1C1143EA014387
:1015C00008FB0CF1994207D9EB180CF1FF3002D25D
:1015D000994200F2CD808446591AA3B2B1FBFEF0C5
:1015E0000EFB101443EA044408FB00F8A04507D999
:1015F0002C1900F1FF3302D2A04500F2B680184644
:10160000A4EB080440EA0C409FE7C7F1200CBB4064
:1016100022FA0CFE4EEA030E01FA07F420FA0CF54A
:1016200021FA0CF34FEA1E482543B3FBF8F92C0CC2
:1016300008FB19331FFA8EFA44EA034309FB0AF444
:101640009C4202FA07F200FA07F10BD91EEB0303E2
:1016500009F1FF3080F087809C4240F28480A9F13C
:10166000020973441B1BADB2B3FBF8F008FB103347
:1016700045EA034400FB0AFAA24508D91EEB04041C
:1016800000F1FF336BD2A24569D90238744440EAB5
:101690000940A0FB0289A4EB0A044C45C2464B4614
:1016A00054D351D0002E69D0B1EB0A0564EB03048A
:1016B00004FA0CFCFD40FC404CEA0505C6E9005468
:1016C000002747E7C2F1200320FA03F7954001FA0B
:1016D00002F021FA03F34FEA154E3843010CB3FB35
:1016E000FEF71FFA85F80EFB173341EA034107FBAB
:1016F00008F38B4204FA02F407D9691807F1FF3C9A
:101700002FD28B422DD9023F2944CB1A81B2B3FB91
:10171000FEF00EFB103341EA034100FB08F38B425D
:1017200007D9691800F1FF3C17D28B4215D902384E
:101730002944C91A40EA07473BE73746304609E7DC
:101740000746E7E61846FBE64145ABD2B8EB020A8E
:1017500069EB0E0201381346A4E76046E9E7184634
:1017600095E76746D1E781467CE702382C4447E796
:10177000ACF1020C2B442FE7384608E73746E9E680
:10178000704700BF38B505460024012C0DDC284603
:1017900004F0F6FDB0FA80F14909284604F0D2FDC4
:1017A000024801F0E1FB0134EFE738BDCDCC4C3EFF
:1017B000012800D070474FF6FF739942FAD110B557
:1017C00006480024046042F2090100F0E4F80448ED
:1017D000046044F2060100F0DEF810BD2000002095
:1017E0001C00002008B501210C4804F0ABFD0121CC
:1017F0000B4804F0A7FD094C2046FFF7C3FF204625
:10180000FFF7C0FF2046FFF7BDFF054C2046FFF75E
:10181000B9FF2046FFF7B6FFEDE700BF200000202C
:101820001C00002008B54FF6FF710120FFF7C0FF34
:1018300008BD6FF01500704703681B6918470368FF
:101840009B69184703689B6A184700290CBF6FF013
:10185000180000207047012070476FF01500704796
:101860006FF015007047704703689B6818470000C9
:1018700010B50446074B236000220023C4E902236D
:1018800000230846A161C4E90433034900F090FA3B
:10189000204610BDFCC000006918000007B500908C
:1018A00000F10801806900F0C2FA03B05DF804FBA2
:1018B00000F10801806900F0EABA000010B5034B9E
:1018C00003600446FFF7F4FF204610BDFCC0000093
:1018D000036801221B6900211847036800221B6965
:1018E00011461847EFF31083DB4372B6044A1178B0
:1018F00029B9044903F001030B70012313707047E9
:10190000250000202400002008B5EFF31083DB073A
:1019100004D436220549064800F04AFD054B002252
:101920001A70054B1B7803B162B608BD08C10000F0
:101930002AC10000250000202400002070B50E46BA
:101940000446154604F0CDFC013609D0204600219E
:1019500004F0D4FC29462046BDE8704004F0CABC1F
:1019600070BD0222FFF7EABF70B50E460446154669
:1019700004F0B7FC01360DD02946204604F0E2FC05
:101980002046012104F0BAFC20460021BDE8704049
:1019900004F0B0BC70BD0022FFF7E6BF00487047FE
:1019A00044C10000024B1B680BB102481847704746
:1019B0000405FF1F44C1000013B5044601300FD1D8
:1019C00002B010BDA3420AD12046896804F086FD0A
:1019D0000021204602B0BDE8104004F0B9BD0C3132
:1019E0000B685A1CEED1002300932246014902489D
:1019F00000F00AFFA1C1000030010180884207B554
:101A000002460AD0431C08D0013105D000230093C0
:101A10000449054800F0F8FE0146084603B05DF8A9
:101A200004FB00BF70C10000300101800B685A1C2C
:101A300001D118467047834201D1486870470C3184
:101A4000F4E70000431C07B50AD0FFF7EFFF431C83
:101A500006D10023024600930349044800F0D4FE57
:101A600003B05DF804FB00BF81C1000030010180BC
:101A70002DE9F34DD0F8048098F83A300446002B55
:101A800064D103685B68984763681B6A83425DD0D2
:101A9000D8F82010D8F80C30C8F82000411AD8F82F
:101AA00008603748194086420C464FF0000546D082
:101AB00098F83B30A1FB00120027D8E90AABCDE92A
:101AC0000012002B45D0009921FA03F40199C3F1CB
:101AD000200CA3F1200201FA0CFC21FA02F221FAF7
:101AE00003F5DDE9000144EA0C04144310EB0A009D
:101AF000A3F1200C41EB0B01C3F1200205FA03FB1B
:101B000004FA0CFC24FA02F204FA03FA4BEA0C0B76
:101B10004BEA020BB0EB0A0261EB0B03BB4208BFBE
:101B2000B24202D2C8E90A2309E0013445F10005B6
:101B3000921B63EB070310461946C8E90A01D8E96E
:101B40000C01021941EB0503C8E90C2302B0BDE802
:101B5000F08D32463B46DDE90001FFF793FC044679
:101B600012EB0A000D4643EB0B01B94208BFB0422D
:101B7000E3D3013445F10005821B61EB0703D1E794
:101B800040420F00824206D98A420BD9884294BF54
:101B9000002001207047884206D98A428CBF00206D
:101BA0000120704701207047002070472DE9F14F58
:101BB000476897F83A300646002B6DD197F83930D0
:101BC000002B69D1FFF754FF75686968002966D05A
:101BD000D5E90C23D1E900018B4208BF824205D32D
:101BE00033685B6901B0BDE8F04F1847801A61EBBC
:101BF000030182468B46D5E90601594508BF504589
:101C00002C6906D3A8682B4988420FD1544528BFB8
:101C100054462A6A3B6A1444EA681440A3422DD110
:101C20004FF484722449254800F0C2FB95F83B101C
:101C3000F9B1A1F1200CC1F120000BFA01F90AFA67
:101C40000CFC49EA0C092AFA00F049EA00090AFAF0
:101C500001F8DFF86CA0174A1AEB08004FF0000BF0
:101C60004BEB09010023FFF70DFC844228BF04461B
:101C7000CFE7A0FB0A8900FB0B99EAE7336820460F
:101C80001B69984733685B68984722460146386A63
:101C9000FFF778FF0028A3D101B0BDE8F08F3B69C2
:101CA000386AFA68184433681B69104001B0BDE80F
:101CB000F04F184740420F00B2C10000CAC10000F7
:101CC0003F420F0043682DE9F74F93F83820044650
:101CD000002A63D193F83A30002B5FD103681B6868
:101CE00098472368DB699847D0F80090B9F1000F56
:101CF00004D12D222B492C4800F05AFB1F2301222E
:101D000002FA03F189455FFA83FA02D0013BF7D169
:101D10009A4645682B1F1C2B01D93B22EAE74FF05E
:101D2000070819F1FF3008FA03F8204E4FF00003BE
:101D300043F1FF314A46C6FB0801FFF7A3FB636886
:101D4000226801934FF0000BC3E900BB52680F46B5
:101D500006469047019B0122186202FA05F5636866
:101D600000210020013DC3E90A01C3E90C01C3F8C9
:101D70000890204683F83BA0C3E90358C3E90667EF
:101D800083F839B083F83AB083F83820FFF770FE53
:101D9000204603B0BDE8F04FFFF708BF03B0BDE831
:101DA000F08F00BFB2C10000D8C7000040420F0052
:101DB00038B505460C46FFF785FF00F0B1FB6B68B0
:101DC0001C60BDE8384000F0C1BB70B5044600F0AF
:101DD000A7FB2368DB689847636893F83A201AB139
:101DE000BDE8704000F0B2BB012283F8392063687F
:101DF0005B68A3B12046FFF73BFE65686E68D5E9D6
:101E00000C01D6E90023994208BF904207D3F3683A
:101E10006B602B68002BEAD0B0689847E7E76368EF
:101E2000002283F839202046FFF7C0FED8E72DE9CD
:101E3000F84305460C4616461F46DDF8208000F0A4
:101E40006FFB2846FFF714FE6A68C4F80880C4E9EF
:101E500000675368002133B9E36069B954602846CC
:101E6000FFF7A4FE0FE0D3E900894F4508BF4645C0
:101E7000F2D31946DB68EEE7D2E90C23BB4208BF78
:101E8000B242CC60EBD2BDE8F84300F05FBB38B59E
:101E900005460C4600F044FB6A685368A34209D12A
:101EA000DB6853602846FFF781FEBDE8384000F04C
:101EB0004DBB1346002BF8D0DA68A242F9D1E26894
:101EC000DA60F2E738B50446FFF7FCFE00F028FBC5
:101ED0002046FFF7CDFD6368D3E90C4500F036FBE3
:101EE0002046294638BD08B5FFF7ECFF08BD0000C5
:101EF000024B00221A7004F0F3B900BFD40900208D
:101F000008B504F037F9024B01221A7008BD00BF72
:101F1000D409002000487047F0C10000024B1B6844
:101F20000BB10248184770470805FF1FF0C10000B9
:101F300010B5044600F0F4FA204610BD10B5044672
:101F400000F004FB204610BD0020704710B5044689
:101F5000FFF78EFC0B4B2360A069FFF7B3FF002255
:101F60000023C4E90A230023C4E9080184F83030BF
:101F700084F8313084F8323084F8343084F83530E5
:101F8000204610BD24C200004FF0FF307047000013
:101F900038B590F83450044625B18F2209490A48D3
:101FA00000F006FAFFF784FC94F8353084F83150DD
:101FB00084F832502BB184F83550BDE8384000F039
:101FC00021BD38BD30C200004FC20000283000F0F3
:101FD0001EBAD0E90A232DE9004812F1010B43F1A2
:101FE000000CD0E90823C0E90ABC12F57A7B43F162
:101FF000000CC0E908BCBDE800884DF804BDD0E97C
:1020000008BC1BF57A724CF100035DF804BBFFF7C6
:1020100045BC38B504468069FFF754FFD4E908236E
:10202000821A61EB0303002B08BFB2F57A7F1446D6
:102030001D4616D3002B08BFB2F5FA6F13D3012B40
:1020400008BF002A05D24FF47A73B2FBF3F00021E7
:1020500006E04FF47A72002320462946FFF712FA71
:1020600038BD0020F3E70120F1E7000090F834309C
:102070002DE9F048044613B990F8315025B1DF221C
:102080001049114800F094F9FFF7C3FF4FF47A7339
:10209000A0FB036703FB0177D4E90823834690196B
:1020A0008C4643EB0701D4E90A23C4E908011BEB82
:1020B00002004CEB030184F83050C4E90A01BDE88A
:1020C000F08800BF30C2000059C200002DE9F0477F
:1020D000994690F834300446904623B15922194964
:1020E000194800F065F990F8315045B9FFF7BEFF87
:1020F000494508BF404504D3012384F83230BDE888
:10210000F0874FF47A73A8FB036794F8352084F8BE
:10211000325003FB0977012384F8313042B9A269B8
:10212000126892F820201AB984F8353000F054FC77
:10213000002384F8333032463B462046BDE8F04762
:10214000FFF7ACBB30C200004FC20000024B4FF0A3
:1021500080625A60704700BF00ED00E010B50123B7
:1021600080F8343090F8303004460BB1FFF7EEFFC2
:102170002046FFF742FF10BD08B50121303000F0C6
:1021800034F908B1FFF7E2FF08BD90F8313010B51F
:1021900004464BB1002380F8313090F8333013B946
:1021A000012380F8323010BD90F83430002BFAD083
:1021B00090F83030013380F83030FFF7C7FF204609
:1021C000FFF707FF2046FFF718FFECE7024B4FF041
:1021D00000725A60704700BF00ED00E010B5044681
:1021E000FFF766FB002384F83430FFF7EFFF10BDE4
:1021F00010B5064B03600446FFF7F0FF2046FFF7DB
:10220000C7FE2046FFF75AFB204610BD24C200003F
:1022100010B50446FFF7ECFF2046382100F079FEA8
:10222000204610BDF0B52C4C2C4F85B0002526461D
:1022300054F8252029463846013500F057F90D2D70
:10224000F6D1A36C0293636C0193236C0093D4E9E1
:102250000E23616B224C234800F048F92168224884
:1022600000F044F9E16AA26AA36AA06A256BE76BF1
:10227000000CCDE901570090C3F30723D2B21B48ED
:1022800000F034F9A36A1D0603D5616B184800F00D
:102290002DF9A36A180403D5A16B164800F026F99E
:1022A000F36C190712D5144800F020F9336DDA07E2
:1022B0000FD5124800F01AF9F36C5B074CBF1048B9
:1022C000104805B0BDE8F04000F010B90E4800F02D
:1022D0000DF90E48EEE700BF0004FF1F0CC300001D
:1022E00000ED00E01AC3000069C3000077C30000DE
:1022F000C6C30000D4C30000E2C30000F1C3000065
:1023000021C400002DC4000011C40000FEC3000061
:1023100013B50446154800F0E9F8302C17D0402CCE
:102320001AD0202C1DD11248124C00F0DFF81248B0
:1023300000F0DCF8FFF776FF104800F0D7F8002334
:102340000F4A0093D26B0F49204600F05DFA0E4809
:102350000E4C00F0CBF8EAE70D480E4C00F0C6F842
:10236000E5E70D480D4C00F0C1F8E0E77CC2000045
:10237000A5C200003E01FF80D2C20000DDC2000005
:102380000004FF1FFCC20000B4C200003F01FF8038
:10239000BDC200004001FF80C8C200003D01FF80B7
:1023A00004F008BF05F06EBA04F09ABB04F042B91D
:1023B00007B50B46009201460022014800F024FABE
:1023C0004401FF8003460122D3E84F0FC3E8412FA9
:1023D000C0B20029F8D17047D0E85F3F5B18C0E871
:1023E000523F002AF8D198B27047D0E84F3F5B1AAD
:1023F000C0E8423F002AF8D1D8B27047D0E85F3F2A
:102400005B1AC0E8523F002AF8D198B2704738B53D
:10241000044600F085F8D4E9004500F097F820461E
:10242000294638BD07B500F07BF842F2090101A842
:10243000FFF7B1FA124D0424012101A803F082FF35
:10244000284600F087FD002101A803F07BFF284605
:1024500000F080FD013CEFD10A4E0424012101A8C7
:1024600003F070FF304600F075FD002101A803F075
:1024700069FF304600F06EFD013CEFD1DBE700BFA5
:10248000F0490200801A060010B5014604460022F9
:10249000022000F02FFC00F043F82046FEF7F0FA8F
:1024A00021460246022000F025FCBDE8104000F065
:1024B0004DB8000000B5A3B00B460246842101A828
:1024C00008F028F8832806D9074B1A681B79CDF83D
:1024D00083208DF88730002802DD01A8FFF7D4FFA4
:1024E00023B05DF804FB00BF39C400000FB407B58A
:1024F00004A951F8040B0191FFF7DCFF03B05DF86C
:1025000004EB04B07047EFF31080C04300F001000B
:102510007047EFF30580003018BF012070470000BE
:1025200008B5FFF7DFF9064A1368591C04D13F22AA
:1025300004490548FFF73CFF0133136008BD00BFA5
:10254000A80000203EC4000060C40000044A1368D4
:1025500023B1013B13600BB9FFF7D6B9704700BF39
:10256000A800002008B50B48FFF72CFF28B1FFF7A3
:10257000D7FFBFF34F8F20BFFDE7FFF7CAFF08B1BA
:10258000FFF750FFFFF7BFFF0028F9D0012000F050
:102590009DFC00BFF800002070B5234C90B016469B
:1025A000202234EA200428BF04460D460DEB020029
:1025B000002105F01DF91D4B02955B690393DA6B51
:1025C00004925A6B1B6B05920693CDE90046CDF839
:1025D0001CD0FFF7A5FF164A13680133012B1360C7
:1025E0000BD16D460FCD134C0FC40FCD0FC40FCDC3
:1025F0000FC495E80F0084E80F006C460FCC0E4D19
:102600000FC50FCC0FC50FCC0FC594E80F0085E8A0
:102610000F000A4B1B6813B1A5F130009847FFF774
:1026200095FF002010B070BD0101FF801806FF1F4C
:10263000AC000020B8000020FC000020B00000200A
:102640002DE9FF41374C0E462168C1F34173032B3E
:102650000CBF4D428DB2C1F3074380461746324846
:102660002A46FFF743FF6FF498731D44132D0FD8CC
:10267000DFE805F00A3E4144474D4A500E0E0E0E6B
:102680000E0E0E0E0E0E0E53A1682848FFF72EFFF9
:102690004046FFF7F9FE61682548FFF727FF4EB176
:1026A0002448FFF7F1FE3046FFF7EEFE3946224898
:1026B000FFF71CFFA1682148FFF718FFE268E369F4
:1026C00051681F480293A36901936369009300292D
:1026D00008BF014623691B48FFF708FF21681A4815
:1026E000FFF704FF194804B0BDE8F041FFF7FEBE54
:1026F000A1681748CAE7A1681648C7E7A168164845
:10270000C4E7A1681548C1E7A1681548BEE7A168FC
:102710001448BBE7A1681448B8E71448FFF7E6FE81
:10272000B6E700BFFC00002018C5000069C5000026
:1027300011C6000022C600002AC600002EC60000F6
:102740000EC5000042C600009AC60000E0C60000A8
:102750007FC500008FC500009EC50000B1C5000008
:10276000C5C50000D9C50000E8C50000FEC50000D1
:1027700030B50A4D00F13C04002310F8012B83EA28
:1027800002630822002B4FEA4303B8BF6B40013AB3
:10279000F8D1A042F1D1184630BD00BFB71DC10429
:1027A0007047000038B5134CD4F88030002B1FDA86
:1027B00004F18000FFF7DCFFD4F8BC30834217D16E
:1027C000D4F8B830A3B90C4B012504F180001D707A
:1027D000FFF7E6FFD4F8B430002B09DD04F18000E8
:1027E000C4F8B850FFF7C4FFC4F8BC00FFF7BAFE46
:1027F000002038BD0004FF1FF9000020014B1878AD
:10280000C0B27047B400002080B50E461F46114686
:10281000254A0125D2E84F4FC2E8435FE4B23CB9F4
:102820007246FFF7B9FE029A39463046FFF708FFB5
:102830001E4E1F481F4D1E4CFFF79AFFD6F8BC30A6
:102840001C49834208BFD6F8B4301A480CBF013384
:1028500001234B6300238B63FFF78AFFC863FFF7F5
:102860005FFE0FCD0FC40FCD0FC40FCD0FC495E881
:102870000F0084E80F00FFF769FE0F48FFF736FEF0
:10288000D6F8B410002902DD0C48FFF72FFEBFF385
:102890004F8F0B490B4BCA6802F4E0621343CB60C5
:1028A000BFF34F8F00BFFDE7B40000200004FF1FFF
:1028B0008004FF1FFC00002091C40000C4C400007D
:1028C00000ED00E00400FA0538B5064C23683BB97A
:1028D000FFF764F8044D01462846FFF737FB2560F3
:1028E000206838BD780100204001002008B58368C9
:1028F00023B9054B1B6893F8320008BDC0689847A0
:102900000028F6D0F9E700BF7801002037B5184D50
:1029100004462046FFF7EAFF40BBD4E90023591CD8
:1029200008BFB2F1FF3F02D02868FFF7CFFB01A834
:10293000FFF7FEFA2046FFF7D9FFA0B9D4E900233C
:10294000013308BFB2F1FF3F07D100F075F801A8CD
:10295000FFF7F4FABFF36F8FDBE72B6893F83130A2
:10296000002BF2D1F3E701A8FFF7E8FA03B030BD7E
:10297000780100201FB5094CCDE90001CDE9022303
:10298000FFF7A2FF6846FFF7C1FF2068FFF700FBD3
:102990002068FFF76BFB04B010BD00BF780100207A
:1029A0002DE9F0410F4690460646FFF78DFFFFF7F1
:1029B0000DFB084B1B6893F83030C41A61F1000519
:1029C000A01943463A4645F10001FFF7D3FF001B2B
:1029D000BDE8F0817801002013B5074C01212046A5
:1029E000FFF7FAFC034628B90090228803490448FF
:1029F000FFF70AFF02B010BD7C010020FAC60000FC
:102A00002301048013B5094C01212046FFF7F6FC91
:102A10004FF6FF73984206D10023228800930449A1
:102A20000448FFF7F1FE02B010BD00BF7C0100209A
:102A30001CC700002401048008B5FFF771FD064B98
:102A40001B889BB22BB903F0B9FDBDE80840FFF726
:102A50007DBD03F0ABFDF8E77C0100206FF01C00AA
:102A600070476FF0150070470120704700207047D5
:102A700070470000034B186818B14FF0FF3101F0A8
:102A80003BBB7047280A0020024B186808B101F0D0
:102A90004BBB7047280A0020F8B5074E15460C4678
:102AA0008F18BC4205D014F8011B304603F004FB1C
:102AB000F7E72846F8BD00BF381A002038B58DB2B8
:102AC00015F0010405D0084803F0BAFA041C18BF39
:102AD0000124EB0605D5044803F0D8FA08B144F008
:102AE0001004204638BD00BF381A002010B5044637
:102AF00004F058FB204610BD10B50C462AB104481E
:102B000003F0B4FA2070012010BD1046FCE700BFAE
:102B1000381A002038B51D46074B0360074B1B6869
:102B2000044633B9064803F005FA2946044803F081
:102B300071FA204638BD00BF44C700009809002044
:102B4000381A0020002070470020704708B5012087
:102B500000F0BCF938B50D4A0D4C13682578C11842
:102B60004DB10C4DA94206D9002323700A4BC11860
:102B70001160184608E009488142F9D903F08EFD3A
:102B80000C2303604FF0FF3038BD00BF0C06FF1F61
:102B90001006FF1F00000020681A002000FC022021
:102BA000012070470120704708B500F07BFA08BD8E
:102BB00008B500F07FFA08BD10B50446037803F0AD
:102BC0000303012B08D0FFF755FF237803F003021E
:102BD000012A03D1FFF758FF00200AE02AB140F292
:102BE000E55204490448FFF7E3FB43F00203237076
:102BF000012010BD98C70000BCC7000008B50378CD
:102C000003F00302022A05D040F2EE5206490748BB
:102C1000FFF7CEFB23F0030343F001030370BDE88D
:102C20000840FFF731BF00BF98C70000DAC70000B7
:102C30003F2870B5044631DC194D55F820305A1C38
:102C400013D1022811DCFFF77FFF034658B9204655
:102C5000FFF778FF034630B9124E3378BFF35B8F2E
:102C6000DB0704D5104B45F82430184670BD3046BC
:102C7000FFF7A2FF0028F5D04FF4165341F21002DF
:102C800041F211010848FFF745FF3046FFF7B6FF54
:102C9000064A07490448FFF783FFE3E70023E4E718
:102CA0000C05FF1F80010020840100200005FF1F8C
:102CB000712A000038B50546FFF7BAFF0B4B002418
:102CC00043F8254030B903F0E9FC092303604FF0D5
:102CD000FF3038BD03685B699847051E04DA03F0CE
:102CE000DDFC6D420560F2E72046F2E70C05FF1FB0
:102CF000FFF7E0BF38B50C461546FFF799FF38B926
:102D000003F0CCFC092303604FF0FF34204638BDAC
:102D100003682146DB682A469847041EF6DA03F06A
:102D2000BDFC64420460EFE773B505460E461446E9
:102D3000FFF7EFFB30B1002300932A460E490F48FE
:102D4000FFF762FDFFF7DFFB0028F4D0002C07DA65
:102D500003F0A4FC162303604FF0FF3002B070BDF7
:102D600007D0224631462846FFF7C4FF40EAE0700C
:102D7000F4E72046F2E700BF4DC800002F010180B4
:102D800038B50C461546FFF753FF38B903F086FCFB
:102D9000092303604FF0FF34204638BD0368214605
:102DA0009B682A469847041EF6DA03F077FC6442D3
:102DB0000460EFE773B504460E461546FFF7A9FB1E
:102DC00030B10023009322460C490D48FFF71CFD4B
:102DD000FFF799FB0028F4D0002D07DB2A46314687
:102DE000204602B0BDE87040FFF7CABF03F056FCB2
:102DF000162303604FF0FF3002B070BD11C8000011
:102E00002F01018010B5FFF713FF044628B903F026
:102E100045FC09230360204610BD0368DB69984721
:102E2000041EF8DA03F03AFC644204600024F2E77E
:102E3000FFF7E8BF38B50C461546FFF7F9FE38B97D
:102E400003F02CFC092303604FF0FF34204638BD0B
:102E5000036821461B692A469847041EF6DA03F0E8
:102E60001DFC64420460EFE7FFF7E4BF10B5FFF715
:102E7000DFFE30B903F012FC092303604FF0FF308E
:102E800010BD03689B699847041E04DA03F006FC32
:102E900064420460F2E70020F2E7000008B50A4C43
:102EA00023680546986803F03FFD2368D86803F05F
:102EB0003BFD0120FFF7DAFF0220FFF7D7FF0DB13E
:102EC000FFF7B0FAFEE700BFE006FF1F08B5FFF707
:102ED000E5FF38B50D46FFF7ABFE044630B903F009
:102EE000DDFB092303604FF0FF3038BD0368DB6969
:102EF0009847002814BF4FF400534FF400436B6011
:102F0000236820469B6A984728610020EDE7FFF779
:102F1000E0BF04F047B90000054AD2F81411C943D4
:102F2000D2F81431DB435B1A8342F9D3704700BFF8
:102F30000070034070B50446FEF7ECFF0646FEF74E
:102F4000D2FF05463046FEF7CEFF401BA042F9D324
:102F500070BD0000034B1B78DBB20BB1FFF7DCBF89
:102F6000FFF7E8BFD409002070B5DFED217A2DED21
:102F7000028B08EE100AB4EEE78AF1EE10FA10DBCD
:102F8000FFF7C1FA68B1DFED1B7A28EE278AFCEE65
:102F9000C87ABDEC028B17EE900ABDE8704001F0D4
:102FA0003BBDDFED157A28EE278AFCEEC87A17EED6
:102FB000904AFEF7AFFF0646FEF795FFB4F57A7F1D
:102FC00005460CD3FFF79FFA48B1FFF705FD4FF414
:102FD0007A70B4FBF0F001F01FFDFFF713FD3046EF
:102FE000FEF781FF401BA042F9D3BDEC028B70BD00
:102FF0000AD7233C00007A440024744908B5094BE1
:10300000094A1A60094B9B1A094A1360094B0A4A7C
:103010001A600A4B9B1A0A4A136000F051F800F03C
:1030200075F800BFF401002000FC0220000003201E
:10303000F00100208C010020681A002000FC022012
:10304000880100200E4838B50E4B03600B251C2468
:103050000D4B4560C460836001F036F80B4B18607F
:103060000B480C4BC460C0E900350B4B836001F08A
:103070002BF80A4B1860BDE8384003F0E1BF00BFF1
:10308000C001002087C80000D4010020D00100202A
:103090009001002094C80000A4010020A00100209D
:1030A000FEF7A0BB024B4FF0FF31186801F024B8C7
:1030B000D0010020014B186801F036B8D001002083
:1030C000094A0A4938B5936803F5E870CC1A1D68B7
:1030D000E55004338342FAD1916001F0E1FCBDE890
:1030E000384000F011B800BF00ED00E00000FF1F05
:1030F000704708B5FFF7A6FFFFF7FAFFFFF752FB8F
:10310000BDE80840FFF7CCBF00F0F0BA07B517489C
:10311000174B03600B2343601C23164CC360164BF4
:103120008360164B23614FF4805363614423E36053
:10313000134BA3601823A361124B236000F0C4FF5C
:10314000114B224618600021104801F0D5FB0346C0
:1031500028B90F49009022460E48FFF755FB00F0B2
:10316000DDFA002300931A460B49F5E7F409002025
:103170009EC80000040A0020D8090020300A002060
:10318000F8010020AEC80000280A0020F33000003B
:10319000B3C800001D010180CFC8000073B506460A
:1031A0000C461546FFF72AFB58B906342ABF064BD2
:1031B000064953F824100023009332462846FFF7AF
:1031C00023FB02B070BD00BFE4C8000004CA0000C9
:1031D00008B500F0E7F8000007B5411E02460023DD
:1031E000042923D8DFE801F0030A10161C00124955
:1031F0001248009301220023FFF706FB00930222EE
:1032000000230F490F48F7E70093032200230E49DC
:103210000E48F1E70093042200230D490D48EBE727
:103220000093052200230C490C48E5E700930C4964
:103230000C480023E0E700BFFCC800002501028025
:103240001DC900002601028042C90000270102803A
:1032500077C9000028010280B2C900002A0102805B
:10326000F2C9000000010280014A0146FFF796BF43
:1032700031010180014AFFF791BF00BF3201018097
:10328000014AFFF78BBF00BF33010180014AFFF7FE
:1032900085BF00BF3801018010B501F045FB034B2D
:1032A0001B6813B1BDE81040184710BD3C02002058
:1032B000024B987A003018BF012070471806FF1F94
:1032C00008B500F041FA00220649FFF769FB431CEC
:1032D00004D1892204490548FFF76AF8BDE808408F
:1032E00000F046BAB1320000E9CA000017CB000076
:1032F000B0F57A7F10B50C4604D01949194834222C
:10330000FFF756F8FEF740FE0028174A14DB00F1DD
:10331000604303F56143F02183F80013916800F1E5
:10332000100341F82340926852F823309C420AD09F
:1033300041220B490D48E3E700F00F03043B13441F
:10334000F0211976EAE7002808DB4209012300F0A2
:103350001F0003FA00F0064B43F82200002010BDC6
:10336000E9CA0000AFCA000000ED00E0BCCA0000DE
:1033700000E100E008B5FFF7A7FABDE80840FEF756
:10338000EDBE0000014B1868FEF728BF7801002051
:10339000014B1868FEF7F0BE7801002008B5FEF773
:1033A000F3FD08BD08B5024C23689847FCE700BF51
:1033B0001406FF1F08B5014610B1132001F014FADE
:1033C000002008BD08B5EFF3058333B16FF00500A9
:1033D00000F012F86FF0050008BDEFF31083002B2A
:1033E000F4D1EFF31183002BF0D1DFF808C000DF38
:1033F000F2E700BFB53300007047EFF310832BB93D
:10340000EFF31180003018BF012070470120704792
:1034100038B5264C237A012B06D06FF00600FFF753
:1034200023FF4FF0FF3038BD01F046FA10B94FF0DE
:10343000FF30F4E71E4A1F4D1F496868FF2382F8DA
:10344000223092F82230D26863F0FF03DB4314BFCE
:10345000B3FA83F32023C3F12003C2F30222934281
:1034600098BF531CFE2202FA03F3114ADBB2D37752
:10347000FFF73EFF0028DAD1FFF790FF2061FFF74A
:1034800079FF0E4801F004F801F066F82B6813F09C
:10349000010F4FF0020304D083F31488237200203D
:1034A000C1E7032282F31488F8E700BF1806FF1F64
:1034B00000ED00E078C000006D0600003406FF1F3C
:1034C00070B54D4C217A012900F0878031B14FF061
:1034D000FF30FFF7C9FE4FF0FF3070BD474D9C2213
:1034E00004F1080004F084F9D5E90B61EB68E365A9
:1034F0002B8AA4F854303046AB68236400F04EF9B0
:1035000008B1C4F88060D5E90561304600F046F99D
:10351000002864D06667D5E90761304600F03EF9BF
:10352000002860D0A667D5E90961304600F036F979
:1035300000285CD0E6676E6B3EB1D6E902233168A5
:10354000304600F096F9C4F88460AE6B3EB1D6E91F
:1035500002233168304600F08CF9C4F88860EE6BC5
:103560003EB1D6E902233168304600F082F9C4F852
:103570008C602E6C3EB1D6E902233168304600F0F3
:1035800078F9C4F890606E6C3EB1D6E902233168D8
:10359000304600F06EF9C4F89460AE6C3EB1D6E9E6
:1035A00002233168304600F064F9C4F89860EE6C8C
:1035B0003EB1D6E902233168304600F05AF9C4F82A
:1035C0009C602D6D3DB1D5E902232968284600F0A5
:1035D00050F9C4F8A0500123237200207DE7D4F8ED
:1035E0008030636797E7D4F88030A3679BE7D4F80F
:1035F0008030E3679FE700BF1806FF1F78C0000018
:1036000010B5134C237A022B05D06FF00700FFF79B
:103610002BFE002010BDFFF7B5FE01236372BFF340
:103620004F8F0C4A5168C90042BF4FF00061516092
:10363000A372E36A4BB1D869636C1BB11B699842F2
:1036400028BF184604232372E4E74FF0FF30F3E766
:103650001806FF1F00ED00E0F8B5214C237A042B7B
:1036600005463BD1E3680344E360E36A53B1064691
:103670000127DA69B24225D8DF61B61A00F036FFB9
:10368000E36A13BB636C4BB101261869A8421FD8CB
:103690001E61236D2D1A9847636CE3B90223002045
:1036A000237200F063FF00236372BFF34F8FA27A8F
:1036B00022B1A3720B4B4FF080525A60BDE8F84024
:1036C000FFF758BE961BDE61DCE7002ED1D1D9E7AB
:1036D000401B1861E2E7002DD7D1DFE7F8BD00BF3E
:1036E0001806FF1F00ED00E07047000008B5FFF767
:1036F000FBFFEFF3058333B16FF00500FFF7B4FD77
:103700006FF0050008BDFFF778FE0028F4D1DFF860
:1037100008C000DFF6E700BFC134000008B5EFF3D2
:10372000058333B16FF00500FFF79EFD6FF00500D4
:1037300008BDFFF762FE0028F4D1DFF808C000DF03
:10374000F6E700BF1134000008B5EFF305832BB195
:103750006FF00500FFF788FD002008BDFFF74DFE64
:103760000028F5D1DFF804C000DFF6E701360000DD
:1037700008B50246EFF305832BB16FF00500BDE8F5
:103780000840FFF771BDFFF738FE0028F5D110465D
:10379000DFF804C000DF08BD5936000010B588B15D
:1037A00040EA010313F007030DD117290DD9016079
:1037B00008390C181022846042600B5081684A60FE
:1037C000C360012010BD0020FCE71846FAE770B581
:1037D00030B371B332F003032BD10F3121F0070165
:1037E00000F108052E686C68731B24F003041B1B92
:1037F000994205D933683546002BF3D118460FE0BE
:10380000446803680C4444601844083843689C4288
:1038100088BF44606B6811431BB9696005F10800FB
:1038200070BD23F00303E818EE50416028600830B3
:10383000F6E70020F4E710B580B1C1B1A1F10804AA
:1038400000F108030022A34209D1596821F00304C2
:103850004168091B41603AB95A60012010BD1968DE
:103860001A4621B10B46EEE71B681360F5E70846E0
:10387000F4E730B5C0B189B1C2B1CBB10024C0E921
:10388000014202FB01F41D190160C360436105613F
:103890001846013904D1A21A99500121084630BDB9
:1038A000851805602846F4E70146F7E71146F5E775
:1038B0001946F3E710B50346A8B100F1140252E827
:1038C000000F10B9BFF32F8F04E0016842E8001425
:1038D00004B1F4E738B1043353E8002F511C43E836
:1038E000001404B1F8E710BD30B5F0B1C3688B42E5
:1038F0001BD803698B4218D900F114031A680A60B7
:10390000BFF35F8F53E8002F0C689442F6D143E871
:10391000001505B1F2E7043050E8003F5A1E40E8B8
:10392000002101B1F8E7002030BD6FF00300FBE794
:10393000EFF310832BB9EFF31180003018BF012093
:10394000704701207047036B30B5E3B1CD78002498
:10395000DA78AA420FD31A46C1E901248AB19160EC
:10396000A4B16160283050E8003F5A1C40E80021B3
:1039700001B1F8E730BD5A681C46002AECD0134666
:10398000E6E7C162ECE7C1E90133C1620163E9E73F
:10399000D1E9013223B19A608A681AB15360704745
:1039A000C262F9E703637047F8B5867804468EB3C0
:1039B000C56801460026284605F10C07FFF7E8FF19
:1039C00026703846FFF790FFAB68002B48D038468A
:1039D000FFF770FF0446002842D0284600F058FD4B
:1039E00032460746314600F0EDFD384600F096FDC0
:1039F0006A6A8168074604F10C00FCF799FFF92315
:103A00002370A670FB68E37021462846BDE8F840A5
:103A1000FFF799BF8568AB68002BF5D05B78832BE7
:103A2000F2D1284600F034FD32463146074600F018
:103A3000C9FD384600F072FD06466A6A806804F1E6
:103A40000C01FCF775FFF3680BB1E2781A700023E4
:103A50002370214605F10C00BDE8F840FFF744BF94
:103A6000F8BD00002DE9F74F8946074600B131B98E
:103A70006FF003010020FFF709FC002479E0CD1C62
:103A800025F003050C3514BFB5FA85F32023B0FAF1
:103A900080F10B441F2BEBDD05FB00FAF2B19468BB
:103AA000D2F80080D2E904633CB1A10702D1D26808
:103AB000332A05D86FF00801DCE7D268002AF9D173
:103AC0003EB116F0030B01D19A4556D96FF00901AA
:103AD000D0E7002BFAD11CB19B460CE0904616466D
:103AE000274BD3F8A000E0B1FFF7E4FE0446A8B1ED
:103AF0004FF0010B3EBB224B019300225146D86F81
:103B0000FFF765FE0646C0B9BBF1000F06D0019B6A
:103B1000D3F8A000214658B1FFF7E6FE6FF004018C
:103B2000A8E701223421D3F88000FFF750FEDDE73B
:103B3000D3F88000FFF77FFEF0E75246002103F044
:103B400057FE4BF0020BFA2323700023A360C4E955
:103B50000993C4E90B332A46334684F802B0C4F80B
:103B60000480394604F10C00FFF783FE044B054A3C
:103B70001A67204603B0BDE8F08F002CE3D1AFE711
:103B80001806FF1FA93900002DE9F0410C46174621
:103B90009846054618B10378FA2B00D141B928465A
:103BA0006FF00301FFF772FB6FF00300BDE8F081D7
:103BB0008368C3B15B78832B15D100F069FC0122C7
:103BC0000646002100F0FEFC304600F0A7FC064649
:103BD0006A6A80682146FCF7ABFEF0680028E5D0F1
:103BE00007700020E2E705F10C00FFF763FE0646D0
:103BF00070B121466A6A0C30FCF79AFE0024F92362
:103C00003370B470F77031462846FFF79CFEE8E742
:103C1000B8F1000F10D04146932000F0E5FD40B10F
:103C2000074B2846596900F021FCEFF30983C3E9EB
:103C300002476FF00100B9E76FF00200B6E700BF7E
:103C40001806FF1F10B500F1280353E8002F12B922
:103C5000BFF32F8F04E0511E43E8001404B1F4E7D2
:103C60000AB9002010BDC06A01230028F9D0821CC7
:103C7000D2E84F1FC2E8443F04B1F9E711F0FF0F4B
:103C8000F0D08068F1E700002DE9F0410F461446BE
:103C90009846054618B10378FA2B00D141B9284659
:103CA0006FF00301FFF7F2FA6FF00300BDE8F08157
:103CB000FFF7C8FF064600283AD001462846FFF71E
:103CC00067FE6A6A06F10C013846FCF731FE0CB15A
:103CD000F3782370002405F10C0734703146384620
:103CE000FFF702FEAB680BB90020DFE73846FFF7AD
:103CF000E1FD06460028F7D0284600F0C9FB214622
:103D00000746012200F05EFC384600F007FC6A6AB4
:103D10008168074606F10C00FCF70AFEF9233370B0
:103D2000B470FB68F37031462846FFF70CFEDBE702
:103D3000B8F1000F10D04146832000F055FD40B18E
:103D4000074B2846596900F091FBEFF30983C3E95B
:103D500002746FF00100A9E76FF00200A6E700BF50
:103D60001806FF1F10B50446EFF3058333B100209A
:103D70006FF00501FFF78AFA002010BDFFF7D8FDAC
:103D80000028F4D12046DFF808C000DFF5E700BFC7
:103D9000653A00002DE9F04106460F4690461C4664
:103DA000EFF305834BB196B930466FF00301FFF78F
:103DB0006DFA6FF00300BDE8F081FFF7B9FD002850
:103DC000F1D130462346DFF848C000DFF3E733780F
:103DD000FA2BE9D1002FE7D0002CE5D106F10C0039
:103DE000FFF768FD054680B1726A39460C30FCF772
:103DF0009FFDF92328462B70AC7085F80380C5E938
:103E0000017600F039FA2046D5E76FF00200D2E7DC
:103E1000893B0000F8B504460F4616461D46EFF3F1
:103E2000058343B18CB920466FF00301FFF72EFAEA
:103E30006FF00300F8BDFFF77BFD0028F2D12046AC
:103E40002B46DFF844C000DFF4E72378FA2BEAD1F1
:103E5000002FE8D0002DE6D12046FFF7F3FE0546FF
:103E600070B100F10C01626A3846FCF761FD0EB1D9
:103E7000EB7833702846EC6000F0FEF90020D9E7BB
:103E80006FF00200D6E700BF893C0000EFF310831B
:103E90002BB9EFF31180003018BF012070470120CB
:103EA0007047000070B5A8B38468D0E900566CB1C3
:103EB00014F0030302D1C2681B2A1AD86FF008015C
:103EC0000020FFF7DDF90024204670BDC368002BF9
:103ED000F4D1124BD3F8940030B901221C21D3F84D
:103EE0008000FFF774FC01E0FFF7E4FC044660B1DA
:103EF0000123F522A37000232270E6706560C4E9F7
:103F00000233C4E904332376DEE76FF00401FFF7E0
:103F1000B7F9D9E705460646DBE700BF1806FF1FDD
:103F2000284B70B55D6904460E4635B96FF0070140
:103F3000FFF7A6F94FF0FF3070BD10B10378F52BF5
:103F400007D020466FF00301FFF79AF96FF00300E6
:103F5000F2E7037E53B9EA6AC560C0E9043202B1F0
:103F60001061EC62012323760020E5E7C278D107D7
:103F70000DD5C168A9420AD1FF2B06D16FF00F0100
:103F8000FFF77EF96FF00200D6E70133EBE7002E72
:103F9000F8D093070AD5E06895F9203090F92020F1
:103FA0009A4203DA80F8203000F085FA3146532037
:103FB00000F01AFC18B12946204600F057FA6FF0BD
:103FC0000100B9E71806FF1F38B52E4B5A690446A1
:103FD00032B96FF00701FFF753F94FF0FF3038BDEA
:103FE00010B10378F52B07D020466FF00301FFF7DF
:103FF00047F96FF00300F2E7037E33B96FF00E016B
:10400000FFF73EF96FF00200E9E7C168914202D084
:104010006FF00D01F4E7013BDBB2037623BB43698C
:104020000BB101691961216901B34B61E3789B0709
:1040300005D592F92110D36AD3B982F82010A3686C
:104040007BB1204600F024FA00220546114600F01C
:10405000B9FAEB6A6361002323610123E560EC6236
:104060002376002000F082FA0020B8E7D362DDE773
:10407000986820B190F920008142B8BF01465B6981
:10408000DAE700BF1806FF1F2DE9F04104460026BD
:1040900001270CB9BDE8F081E378D4F814801B0740
:1040A00010D5A36826766BB1204600F0F1F9002206
:1040B0000546114600F086FAEB6AE560C4E9046340
:1040C000EC6227764446E4E708B50246EFF3058341
:1040D00033B100206FF00501FFF7D2F8002008BDD2
:1040E000FFF7D4FE0028F4D11046DFF808C000DF47
:1040F000F5E700BFA53E000008B50246EFF30583D3
:104100003BB110466FF00501FFF7BAF86FF00500FC
:1041100008BDFFF7BBFE0028F3D11046DFF804C04E
:1041200000DFF5E7213F000008B50246EFF3058305
:104130003BB110466FF00501FFF7A2F86FF00500E4
:1041400008BDFFF7A3FE0028F3D11046DFF804C036
:1041500000DFF5E7C93F000010B5D0E85F3F5A1C0B
:10416000914200D80022C0E8542F04B1F5E798B27C
:1041700010BD000038B51B4CFFF70AF9E3680133A6
:10418000E360236D03B1984700F0B0F9002000F020
:10419000EDF9236C2BB1A26BA1698A4202D0A16315
:1041A000E36338BDE36B0BB1013BE363E36B002BCF
:1041B000F7D1237A022BF4D1656A002DF1D095F95D
:1041C000201092F920309942EBD1284600F069F98D
:1041D000A06B00F083F9284600F0BEF9A563236CBC
:1041E000DEE700BF1806FF1F70B5224C04F156052C
:1041F00004F15A06B4F85410D5E85F3F13B9BFF381
:104200002F8F04E05A1EC5E8502F00B1F4E79BB28F
:104210005BB33046FFF7A0FFE36D53F8200020B3F7
:104220000378F13B082BE5D801A252F823F000BF38
:1042300055420000F54100005B420000F5410000DE
:10424000F54100005F42000063420000F5410000BC
:1042500067420000236E9847CCE7636EFBE7A36ECE
:10426000F9E7E36EF7E7236FF5E70020BDE870405C
:1042700000F07CB91806FF1F70B5164C0546B4F85F
:10428000541004F15602D2E85F3F994202D8BFF3BE
:104290002F8F04E0581CC2E8560F06B1F3E79BB21B
:1042A000994205D829460220BDE87040FEF794BF28
:1042B00004F15800FFF750FFE36D43F82050637A94
:1042C00023B9054B4FF080525A6070BD0123A37291
:1042D000FBE700BF1806FF1F00ED00E0EFF31083BF
:1042E0002BB9EFF31180003018BF01207047012077
:1042F0007047000010B50123094A437090F920105F
:10430000536A1C321BB193F920408C4205DCC0E992
:104310000232906003B1D86010BD1A469B68F1E785
:104320001806FF1F014B5869704700BF1806FF1F92
:1043300008B5FEF7B1FFDFF810C000DF4FF0FF3126
:104340000020FEF797FFFEE755480000930710B5E1
:1043500002F0010422D400F1280384B153E8000FD5
:1043600000EA01028A4203D0BFF32F8F002005E04C
:1043700020EA010243E8002404B1EFE710BD53E84E
:10438000000F084203D1BFF32F8F002005E020EA81
:10439000010243E8002404B1F1E7EFE7806A01EA93
:1043A00000031CB1994218BF0020E7E7002B08BFAB
:1043B0000020E3E710B5084A136B00213BB94FF02A
:1043C000FF34C461C0E9043121B1086110BD194650
:1043D0001B69F3E71063F9E71806FF1F10B5C469FE
:1043E000621CD0E904310AD103B1596142691AB1A2
:1043F00013610023436101E0064A136310BD1BB142
:10440000DA6959612244DA614269002AF0D1014A2D
:10441000D362F3E71806FF1F10B5002303808378EB
:104420009A07044608D513F0100F016B0E4B0FD0FE
:10443000D3F88400FFF758FAA378DB0712D50A4BAC
:10444000D3F88800214638B1BDE81040FFF74CBAD8
:10445000586FFFF7F0F9EFE7D3F88000BDE81040A0
:10446000FFF7E9B910BD00BF1806FF1F10B591F99D
:10447000202083681BB193F92040944205DAC1E9FA
:104480000230816003B1D96010BD18469B68F1E726
:1044900083689A68826002B1D0600022DA601846B0
:1044A0007047C36833B182689A60826802B1D36092
:1044B0000023C360704710B50146044664B12378F9
:1044C000F12B07D00846FFF7ECFF2046BDE810406F
:1044D000FFF7CCBFE468F1E710BD000001230146FF
:1044E00043700148FFF7C2BF3406FF1F38B50A4DBD
:1044F000EC6A84B1E369013BE36163B92046FFF7ED
:10450000D0FFFFF7EBFF246924B1E369002BF5D05E
:1045100000236361EC6238BD1806FF1F90F822305B
:10452000826B13F0100F0CBF6020202010447047E6
:10453000074B596951B10B6B8A6B934203D21A68CE
:10454000044B9A4202D00120FEF746BE704700BFDE
:104550001806FF1FA52E5AE208B502234370024B2E
:104560009861FFF7E5FF08BD1806FF1F10B5144B53
:1045700004461A7A5969A0B9022A1FD15C6AECB1C3
:1045800094F9202091F920309A4217DD2046FFF758
:1045900088FF0846FFF7AEFE2046BDE81040FFF753
:1045A000DBBF022A05D190F9202091F920309A42F0
:1045B000EFDC2046BDE81040FFF790BF10BD00BF04
:1045C0001806FF1F38B504461546FFF7A7FF016020
:1045D0002046FFF703FF1DB1BDE83840FFF7C6BF17
:1045E000BDE83840FFF77ABF10B54378332B044657
:1045F0000CD1416A90F82320FFF7A8FE014628B1AC
:1046000020460022BDE81040FFF7DCBF10BD0000CF
:104610002DE9F04F85B08246029128B96FF0030171
:10462000FEF728FE0024B0E0002A45D09468976980
:10463000D2E9046544B1A30702D1D368432B06D85D
:104640006FF008010020EBE7D368002BF8D13EB1F2
:10465000700702D1002D40F0B2806FF00A01F1E73F
:104660002FB17B1E372B03D96FF00B01EAE7182718
:10467000002D40F0A880D2E9009301934CBB554B2C
:10468000D3F88800F0B1FFF715F90446002800F0D0
:1046900093804FF00108002E36D1DFF838B1DDB934
:1046A0004D4ADBF88400556DB0B1FFF703F9D8B17E
:1046B00048F01008064623E091461827154616468E
:1046C0000192DCE701224421D3F88000FFF77FF854
:1046D000DBE74FF00008DEE732462946DBF87400DE
:1046E000FFF775F80028E5D1B8F1000F58D0DBF8D6
:1046F0008820002A4DD021461046FFF7F5F8002407
:1047000048F00208002C57D040F2F1132380019B9F
:10471000E3700023C4E90233C4E90433C4E9063377
:1047200084F82330C4E90933C4E90B36A5F140030A
:1047300033447FB2C4E90E3AFD22284B84F802804C
:10474000C4F8049084F8207084F8217084F8222042
:1047500065633360204B1B685B0723D4A36B002089
:104760001A4603F1340143F8040B9942FBD11C4B68
:10477000C2E90D3A4FF08073D363029B1362154B6D
:10478000184A1A662046FFF7F1FE204605B0BDE83C
:10479000F08F2146DBF880000392FFF74CF8AEE77C
:1047A0004446ADE7AD08113D4FF0CC33002DD5D0D8
:1047B00046F8043F013DF9E76FF0040142E7002F9E
:1047C0007FF44FAF182769077FF447AF472D3FF6B7
:1047D00052AF42E71806FF1F78C00000A52E5AE22C
:1047E00031430000E945000038B5184A137A022B1E
:1047F000144627D1536A3BB352694B1C507009D100
:104800001046FFF7D7FD1248FFF742FEFFF7A4FE60
:10481000012038BDE36A002013B1DD69A9420BD243
:10482000D161C2E9043058B10261002BEBD0D869E4
:104830005A61411AD961E6E71846491B1B69EBE743
:10484000E262F2E70020E4E71846E2E71806FF1FFD
:104850003406FF1F38B5164D2B7A022B27D16B6A11
:104860002BB36C69E06AFFF70FFCA06918B1002256
:104870001146FFF7A7FEEFF309830E48A363FFF786
:1048800007FEFFF769FE00236B61E378DB0701D5C4
:10489000A36923B12046BDE83840FFF7BDBD04221F
:1048A0006270E3606B6BA36003B1DC606C6338BD66
:1048B0001806FF1F3406FF1F38B50B4C0B48A26DBE
:1048C0000B4D0021FFF7A4FE636EA8624BB1E26DB1
:1048D00008480021FFF79CFEA864003018BF0120A3
:1048E00038BD0120FCE700BF78C00000D1310000D6
:1048F0001806FF1FDD49000010B50446EFF30583DD
:1049000033B100206FF00501FEF7B4FC002010BDAC
:10491000FFF7E4FC0028F4D12046DFF808C000DFF0
:10492000F5E700BF1146000008B5EFF3058313B1AA
:10493000054B586908BDFFF7D1FC0028F8D1DFF816
:104940000CC000DFF6E700BF1806FF1F254300007C
:104950000C4A536C30B5002413B11D698D420AD93D
:104960000161C0E902431BB11D699860691A1961B0
:104970002CB1E06030BD1C46491BDB68ECE750649D
:10498000F8E700BF1806FF1F70B5134D6C6C04B339
:104990002369013B236101262369D3B9E3680BB185
:1049A000A2689A606B6400231A4604F11801E86C4F
:1049B000FFF7F0F918B121460320FEF70DFCE3786C
:1049C000012B07D161692046FFF7C2FF6C6C002CF8
:1049D000E2D170BD6670F9E71806FF1F0B4B0C4C57
:1049E00007B51A6E586E0821FFF7BCF9094AE06452
:1049F00022654FF0FF3300226946E06CFFF70AFAA8
:104A00000028F6D1DDE900309847F2E778C00000D1
:104A10001806FF1F8949000008B5FEF7D3FC20B136
:104A2000C12202490248FDF7C3FC08BDC6CB000005
:104A3000B7CB000008B5104A1049114841F24403B1
:104A4000D15000F031FB0F4B0F4A1A600022114683
:104A5000022000F0A3FA0D4A1378002103F0C703E7
:104A6000137008460A4A00F0ADFB0A4800F03AF914
:104A7000094B0A4A1A6008BD007004400000260273
:104A800080CD0000341A0020001BB7000040064013
:104A90007CCD000088CD0000BC06FF1F000E27075C
:104AA00030B5164D164C85B0FFF7C4FF2B6843F0A8
:104AB00000532B602369DB051AD401A800F0D4FF52
:104AC00001A9204600F094FF236943F48073236119
:104AD000636943F0100363616368B3F5805FFBD3E0
:104AE000636923F0100363612B6823F000532B608C
:104AF0002B6823F000532B6005B030BD3C80044090
:104B000000D0034007B504210DEB0100FCF729FF9D
:104B100003B05DF804FB0000084AD2F8883043F483
:104B20007003C2F88830064B4CF22052DA814DF601
:104B30002812DA814FF4E9721A80704700ED00E024
:104B400000200540064B9A79D20755BF054B064A0F
:104B50001868187A42BFC0F342031068D840704703
:104B600000400640C406FF1FC006FF1F08B50F4BDC
:104B70001B7B03F00303012B0ED004D3022B0C4844
:104B800018BF002008BD0B4B1A6862B90A4B0B4ACC
:104B9000DE210B4801F030FD0A4B1A681AB90A4BA6
:104BA000064AE321F5E71868ECE700BF004006403D
:104BB000006CDC02341A002097CD000019CE0000F2
:104BC000A9CD0000301A0020FBCD000008B5FFF78A
:104BD000CDFFA0B10D4A13785178127BC3F3C20305
:104BE00011F0300F20FA03F002F0030200D00AB1F6
:104BF000022A04D1062B03D0072B05D0400908BD9B
:104C00001423B0FBF3F0FAE70C23FAE70040064068
:104C100008B5094B1B781B060BD5084B1A6832B92F
:104C2000074B084A084840F2671101F0E5FC186894
:104C300008BD0020FCE700BF00500640341A0020E9
:104C40009DCD000030CE0000A9CD000008B50A4B74
:104C50001A7812060ED5094A116831B9084B094A6B
:104C600009484FF4BD7101F0C7FC10689B789B099F
:104C7000D84008BD0020FCE700500640341A002050
:104C80009DCD00004CCE0000A9CD000008B5104B12
:104C90001B68C3F38143022B0BD0032B15D00BB140
:104CA000002008BDFFF7D2FFB0F5004F18BF00206D
:104CB000F7E7084B1A6832B9074B084A084840F230
:104CC000931101F099FC1868EBE74FF47A70E8E76C
:104CD00000700440301A002001CE000066CE0000B3
:104CE000A9CD00001249426841F2440370B5CA5090
:104CF00041F2040602788D5943788478120402F454
:104D0000403225F440352A435B008A5103F00E03FC
:104D100004F00102134341F264028B50C3780A6825
:104D20009B0403F4402322F4402213430B6070BD24
:104D30000070044008B5104B5A78910701D5002047
:104D400008BD9A799206FAD49B79DB0610D4FFF756
:104D50003DFF0028F3D0084AD378D278C3F341133B
:104D60005B0003EBD213054A32F813305843E7E7F0
:104D7000034B1868EDE700BF00400640C4CE0000BA
:104D8000C406FF1F034B187810F0020001D0FFF794
:104D9000D9BE70470040064010B50E4CA07910F007
:104DA000400015D0FFF7E2FE30B90B4B0B4A0C4820
:104DB00040F2C13101F020FC237903F007030133F5
:104DC000B0FBF3F0637903F01F031033584340083E
:104DD00010BD00BF004006400ECE00007CCE00009B
:104DE000A9CD000010B541F20403114CE358C3F300
:104DF0000143022B16D0032B17D0012B0FD0FFF746
:104E000099FF41F26403E258E35802F00102C3F350
:104E1000420302FB00000133B0FBF3F010BDFFF7CB
:104E2000BBFFEEE7034B1868EBE70348E9E700BF79
:104E30000070044090080020006CDC020C4A93795A
:104E4000927CC3F38103022BD2B20BD0032B03D08D
:104E5000012B05D1FFF776BED30605D4FFF79CBF23
:104E6000FFF768BFFFF782BE024B1868704700BFAC
:104E7000004006409008002010B5094B9B79DB06E6
:104E80000AD4FFF7A3FE0446FFF7D8FFB4EBD00F18
:104E900094BF2046002010BD024B1C68F4E700BF01
:104EA00000400640C406FF1F08B5132854D8DFE8A9
:104EB00000F00D0D18212A5333373B533F43474B26
:104EC0004F535353550A4FF47A7008BDFFF7B6FF9E
:104ED000234A41F24403D3581B0F0133B0FBF3F0D4
:104EE000F3E7FFF7ABFF1E4A41F24403D358C3F385
:104EF0000363F2E7FFF7A2FF194A41F24403D358D4
:104F0000C3F30353E9E7FFF799FF154A41F244035E
:104F1000D358C3F30343E0E7BDE80840FFF762BF9F
:104F2000BDE80840FFF7B2BEBDE80840FFF78EBEFF
:104F3000BDE80840FFF76CBEBDE80840FFF79CBF26
:104F4000BDE80840FFF71EBFBDE80840FFF7F2BE0E
:104F5000BDE80840FFF720BF0020B6E70148B4E7EE
:104F600000700440006CDC0210B50B490A7B0B7B1F
:104F700000F0030403F0FC0323430B7302F003036C
:104F8000834205D1002010BD00BF013BFCD1F9E7F1
:104F900040F2DD53F9E700BF0040064070B51D4BFD
:104FA0009C799D791E7AC6F342069642C4F3810429
:104FB000EDB217D01B789B0701D4012C09D1EE0765
:104FC00007D5144B5D7805F0FE055D709D79ED0702
:104FD000FCD4104D2B7A520002F00E0203F0D003E5
:104FE0001A432A720B4B5A7801F0010502F0FE02B7
:104FF0002A435A701A7802F0FC020243012C1A70FC
:1050000001D0820704D59A7902F001028A42FAD1CE
:10501000002070BD0040064008B530B90E4B0F4A65
:105020000F4840F2D74101F0E7FA42780D4B02F009
:1050300007021A715979827801F0E00102F01F022B
:105040000A435A711A7942F0400102780A431A71F0
:105050009A795206FCD508BD90CD00008ECE000096
:10506000A9CD0000004006400E4A9379107A527B89
:10507000DBB200F00100990748BF40F00200D20700
:1050800048BF40F01000190648BF40F020005A0603
:10509000044B9B7B48BF40F04000DB0748BF40F417
:1050A0000070704700400640036849F6970293423B
:1050B00030B526D9144DAB4294BF01250225134AC1
:1050C0000179137803F0F0030B43114913704B7807
:1050D000447903F0C303234343EA05134B70137869
:1050E000857903F05F032B431370C3799B01DBB217
:1050F00093702CB113781A0602D58B799B07FCD5D7
:1051000030BD0025DBE700BF00127A0000500640EA
:1051100000400640012838B5044607D031B91E4B7F
:105120001E4A1F4840F6650101F066FA1D4B5A7889
:1051300002F0FD025A701A7802F03B0242F080023F
:105140001A709A7902F01C02082AFAD15A7902F0F0
:10515000BF025A71134B1D469A799206FCD414B9BA
:105160000846FFF759FF6B7943F040036B712A7CC7
:10517000230102F0EF0203F010031343094A2B74DA
:105180001146937CC3F300139C42FAD18B799B06A2
:10519000FCD5002038BD00BF90CD00009FCE0000A0
:1051A000A9CD000000400640054B1A7802F03F02EE
:1051B0001A709A79C2F38102032AFAD1002070474B
:1051C00000400640012938B50C46154607D032B9D3
:1051D0000C4B0D4A0D4840F6881101F00DFAFFF70F
:1051E000C3FE29462046FFF795FF094B1A7802F0C7
:1051F0003F021A709A79C2F38102032AFAD1002081
:1052000038BD00BF90CD0000B0CE0000A9CD000099
:105210000040064008B50368002BB4BF034B044BA5
:105220001B689847BFF34F8F08BD00BFA008002040
:10523000A408002008B5074B196831B9064B074A86
:10524000074840F6990101F0D7F90648BDE8084043
:10525000FFF7E0BF9408002048CF000090CF000087
:10526000F7CE000000C0024008B5074B596831B9BD
:10527000064B074A074840F6A10101F0BDF9064870
:10528000BDE80840FFF7C6BF9408002060CF0000CB
:10529000A6CF0000F7CE000000D0024008B5074BB3
:1052A000996831B9064B074A074840F6A90101F051
:1052B000A3F90648BDE80840FFF7ACBF94080020FA
:1052C00078CF0000BCCF0000F7CE000000C00A403D
:1052D0001F2908B506D90D4B0D4A0E484FF4E07151
:1052E00001F08AF900EB411241F21C03D25AC36A61
:1052F000406ACB40C8405B00800000F0040003F02F
:1053000002030343C2F3C010184308BD55D0000088
:105310007FD0000004D0000070B5054630B9274B9F
:10532000274A284840F2353101F066F98268017C4D
:10533000D177C368046833B92CB141680122A4460F
:10534000BDE87040604702EB411241F21C0041F29F
:1053500018015158125A02F08002002AA1EB0301F1
:1053600014BF012200224FEA511114D0C9B26B7C44
:105370005BB2994217D1EB7C287D98421BD1EB7C24
:105380005BB249B26974E97CC91A49B2E974A4B143
:1053900069682846D3E709B10139E7E7297D013972
:1053A00001F0FF01E3E76B7C5BB2CB1AE9D5287D06
:1053B00043FA80F3E5E70023E3E770BDD2CF0000B6
:1053C0009AD0000004D0000008B500210A48FFF779
:1053D0007FFF420703D5094B1868FFF79DFF102197
:1053E0000548FFF775FF430705D5044B186CBDE86A
:1053F0000840FFF791BF08BD00800040A8080020CA
:1054000008B501210A48FFF763FF420703D5094B9E
:105410005868FFF781FF11210548FFF759FF43073F
:1054200005D5044B586CBDE80840FFF775BF08BDB3
:1054300000800040A808002008B502210A48FFF7B4
:1054400047FF420703D5094B9868FFF765FF122114
:105450000548FFF73DFF430705D5044B986CBDE8B1
:105460000840FFF759BF08BD00800040A808002091
:1054700008B503210A48FFF72BFF420703D5094B64
:10548000D868FFF749FF13210548FFF721FF4307BD
:1054900005D5044BD86CBDE80840FFF73DBF08BDFB
:1054A00000800040A808002008B504210A48FFF742
:1054B0000FFF420703D5094B1869FFF72DFF142191
:1054C0000548FFF705FF430705D5044B186DBDE8F8
:1054D0000840FFF721BF08BD00800040A808002059
:1054E00008B505210A48FFF7F3FE420703D5094B2B
:1054F0005869FFF711FF15210548FFF7E9FE43073B
:1055000005D5044B586DBDE80840FFF705BF08BD41
:1055100000800040A808002008B506210A48FFF7CF
:10552000D7FE420703D5094B9869FFF7F5FE162110
:105530000548FFF7CDFE430705D5044B986DBDE840
:105540000840FFF7E9BE08BD00800040A808002021
:1055500008B507210A48FFF7BBFE420703D5094BF0
:10556000D869FFF7D9FE17210548FFF7B1FE4307B9
:1055700005D5044BD86DBDE80840FFF7CDBE08BD8A
:1055800000800040A808002008B508210A48FFF75D
:105590009FFE420703D5094B186AFFF7BDFE18218D
:1055A0000548FFF795FE430705D5044B186EBDE887
:1055B0000840FFF7B1BE08BD00800040A8080020E9
:1055C00008B509210A48FFF783FE420703D5094BB6
:1055D000586AFFF7A1FE19210548FFF779FE430736
:1055E00005D5044B586EBDE80840FFF795BE08BDD1
:1055F00000800040A808002008B50A210A48FFF7EB
:1056000067FE420703D5094B986AFFF785FE1A210A
:105610000548FFF75DFE430705D5044B986EBDE8CE
:105620000840FFF779BE08BD00800040A8080020B0
:1056300008B50B210A48FFF74BFE420703D5094B7B
:10564000D86AFFF769FE1B210548FFF741FE4307B3
:1056500005D5044BD86EBDE80840FFF75DBE08BD18
:1056600000800040A808002008B50C210A48FFF778
:105670002FFE420703D5094B186BFFF74DFE1C2187
:105680000548FFF725FE430705D5044B186FBDE815
:105690000840FFF741BE08BD00800040A808002078
:1056A00008B50D210A48FFF713FE420703D5094B41
:1056B000586BFFF731FE1D210548FFF709FE430730
:1056C00005D5044B586FBDE80840FFF725BE08BD5F
:1056D00000800040A808002008B50E210A48FFF706
:1056E000F7FD420703D5094B986BFFF715FE1E2106
:1056F0000548FFF7EDFD430705D5044B986FBDE85E
:105700000840FFF709BE08BD00800040A80800203F
:1057100008B50F210A48FFF7DBFD420703D5094B07
:10572000D86BFFF7F9FD1F210548FFF7D1FD4307AF
:1057300005D5044BD86FBDE80840FFF7EDBD08BDA7
:1057400000800040A8080020024B034A1B68116833
:1057500002481847340900202809002000000C40A6
:10576000024B034A1B6811680248184730090020A1
:105770002809002000000C40024B034A1B681168F6
:10578000024818472C0900202809002000000C407E
:10579000024B034819680023184700BF280900205E
:1057A00000000C40084B196810B531B9074B084A86
:1057B000084840F23C5100F01FFF074B07481B68A8
:1057C000BDE81040184700BF38090020A9D00000EC
:1057D00044D10000F0D00000400900200040024009
:1057E000084B596810B531B9074B084A084840F2D0
:1057F000455100F001FF074B07481B68BDE810400A
:10580000184700BF38090020BCD000005AD1000062
:10581000F0D000004009002000400A4010B5C278D6
:10582000D20603460C4602D48278920607D5064A71
:105830002146126818469047BFF34F8F10BD034BA7
:105840001B689847F8E700BF54090020580900205A
:10585000024B03481968FFF7E1BF00BF440900206D
:1058600000600640024B03485968FFF7D7BF00BFEE
:105870004409002000700640024B03489968FFF776
:10588000CDBF00BF4409002000600E40024B03481A
:10589000D968FFF7C3BF00BF4409002000700E4065
:1058A00008B5034A034B04484E2100F0A5FE00BF93
:1058B000E6D1000070D1000094D1000008B529B9EC
:1058C000174B184A1848552100F096FE174B98427E
:1058D00001D0FFF7E5FF164A136843F00103136098
:1058E0000B788A785B00D20002F0080203F0020312
:1058F0001343CA7843EA82034A78120102F0300265
:10590000134303604B790A7903F0030343EA8203EC
:105910008A79D20002F078021343436008BD00BFC9
:1059200090CD0000F8D1000094D1000000000440A8
:105930003880044008B528B9074B084A08487F2139
:1059400000F05AFE00230122037043708370C3707D
:1059500002714271837108BD90CD000003D2000036
:1059600094D10000024B034A1B6811680248184793
:10597000600900205C09002000400C4008B5034A83
:10598000034B0448482100F037FE00BF8CD20000D2
:105990001AD200003CD2000008B529B90F4B104ABA
:1059A00010484F2100F028FE0F4B984213D10F4AA8
:1059B000136843F400031360036823F002030360D9
:1059C0000B7823B1036823F00103036008BD03686B
:1059D00043F00103F9E7FFF7D1FF00BF90CD0000CE
:1059E0009CD200003CD20000007003403C80044088
:1059F00010B529B9174B184A1848D22100F0FCFD00
:105A0000174A136843F000531360164B5A69D207C4
:105A100009D51A6942F001021A611A6922F00102DD
:105A20001A6101221A608B7802694C789B0022F07F
:105A30000C0243EAC40313430A7823F0100343EA39
:105A4000021303614B680A7A1B029BB21343C360C3
:105A500010BD00BF90CD0000FED20000AED200000D
:105A60003C80044000D0034008B528B9064B074AE3
:105A70000748F12100F0C0FD0023037043708370DC
:105A8000C0E9013308BD00BF90CD000007D300007E
:105A9000AED2000008B5084B196831B9074B084A67
:105AA000084840F27C7100F0A7FD074B07481B68CF
:105AB0009847BFF34F8F08BD640900202ED3000024
:105AC000B2D3000062D300007009002000F0024051
:105AD00008B5084B596831B9074B084A084840F2E5
:105AE000877100F089FD074B07481B689847BFF393
:105AF0004F8F08BD640900201CD30000CBD30000E9
:105B000062D300006C09002000F00240084B1968C5
:105B100010B531B9074B084A084840F2845100F0EB
:105B20006BFD074B07481B68BDE81040184700BFD6
:105B300074090020E4D3000067D4000016D40000EC
:105B40007809002000100B40004B1847C906FF1FC2
:105B5000EFF3108272B6024B1A60BFF36F8F70477B
:105B60007C090020034B1B6883F31088BFF36F8F01
:105B7000704700BF7C090020054A136923F0040325
:105B80001361BFF34F8F30BFBFF36F8F002070479B
:105B900000ED00E010B543780A4A03F0F80343F043
:105BA000020343701369044643F00403136143780E
:105BB000FFF7CAFF637813F0080F40F63C7008BF88
:105BC000002010BD00ED00E008B5114B984215D043
:105BD00003F58053984213D003F58053984211D0B7
:105BE00003F5805398420FD003F5FA2398420DD065
:105BF000084B094A0948A92100F0FEFC002008BD15
:105C00000120FCE70220FAE70320F8E70420F6E78A
:105C100000A006407DD400007ED500002DD50000F8
:105C2000F8B504460E4629B9504B514AD421514883
:105C300000F0E2FC0B681BB94F4B4D4AD521F6E74B
:105C40004E49884219D001F58051884215D001F59E
:105C50008051884213D001F5805188420FD001F560
:105C6000FA21884214BF4FF0FF310121B0798842F8
:105C700007DD434B3E4AD721D9E70821F6E701214A
:105C8000F4E7F079884203DD3E4B394AD821CEE76C
:105C90001D01B2FBF5F5ADB2002D08BF012569016C
:105CA0005200B2FBF3F77F1ABFB23944B2FBF1F2F4
:105CB000934234BFD21A9A1A6421B3FBF1F303EB77
:105CC000430393424FD32046FFF77EFF2E4B53F8FA
:105CD00020100B0C03F1804303F58E2389B2186862
:105CE00001228A4002431A60E37803F0F303E37071
